{
  "contractName": "ContractsManagerEnabled",
  "abi": [
    {
      "constant": false,
      "inputs": [
        {
          "name": "contractsManagerAddr",
          "type": "address"
        }
      ],
      "name": "setContractsManagerAddress",
      "outputs": [
        {
          "name": "result",
          "type": "bool"
        }
      ],
      "payable": false,
      "stateMutability": "nonpayable",
      "type": "function"
    },
    {
      "constant": false,
      "inputs": [],
      "name": "remove",
      "outputs": [],
      "payable": false,
      "stateMutability": "nonpayable",
      "type": "function"
    }
  ],
  "bytecode": "0x6060604052341561000f57600080fd5b6102e88061001e6000396000f30060606040526004361061004c576000357c0100000000000000000000000000000000000000000000000000000000900463ffffffff1680630ceb987714610051578063a7f4377914610087575b600080fd5b341561005c57600080fd5b610071600461006c90369061022f565b61009c565b60405161007e9190610267565b60405180910390f35b341561009257600080fd5b61009a61018a565b005b6000806000809054906101000a900473ffffffffffffffffffffffffffffffffffffffff1673ffffffffffffffffffffffffffffffffffffffff161415801561013257506000809054906101000a900473ffffffffffffffffffffffffffffffffffffffff1673ffffffffffffffffffffffffffffffffffffffff163373ffffffffffffffffffffffffffffffffffffffff1614155b156101405760009050610185565b816000806101000a81548173ffffffffffffffffffffffffffffffffffffffff021916908373ffffffffffffffffffffffffffffffffffffffff160217905550600190505b919050565b6000809054906101000a900473ffffffffffffffffffffffffffffffffffffffff1673ffffffffffffffffffffffffffffffffffffffff163373ffffffffffffffffffffffffffffffffffffffff161415610219576000809054906101000a900473ffffffffffffffffffffffffffffffffffffffff1673ffffffffffffffffffffffffffffffffffffffff16ff5b565b6000610227823561028e565b905092915050565b60006020828403121561024157600080fd5b600061024f8482850161021b565b91505092915050565b61026181610282565b82525050565b600060208201905061027c6000830184610258565b92915050565b60008115159050919050565b600073ffffffffffffffffffffffffffffffffffffffff821690509190505600a265627a7a723058205ccdea3e502dc55ddcbb767dd7637a963a59bc94a8a10e486865a6f5df3610ff6c6578706572696d656e74616cf50037",
  "source": "pragma solidity ^0.4.20;\npragma experimental ABIEncoderV2;\n\n    /**\n    * Script for object lending contracts\n    */\n\ncontract ContractsManagerEnabled {\n    address ContractsManager;\n\n    function setContractsManagerAddress(address contractsManagerAddr) returns (bool result){\n        // Once the ContractsManager address is set, don't allow it to be set again, except by the\n        // ContractsManager contract itself.\n        if(ContractsManager != 0x0 && msg.sender != ContractsManager){\n            return false;\n        }\n        ContractsManager = contractsManagerAddr;\n        return true;\n    }\n\n    // Makes it so that ContractsManager is the only contract that may kill it.\n    function remove(){\n        if(msg.sender == ContractsManager){\n            selfdestruct(ContractsManager);\n        }\n    }\n\n}\n\n// The Doug contract.\ncontract ContractsManager {\n\n    address owner;\n\n    // This is where we keep all the contracts.\n    mapping (bytes32 => address) public contracts;\n\n    modifier onlyOwner { //a modifier to reduce code replication\n        if (msg.sender == owner) // this ensures that only the owner can access the function\n            _;\n    }\n    \n    // Constructor\n    function ContractsManager(){\n        owner = msg.sender;\n    }\n\n    // Add a new contract to ContractsManager. This will overwrite an existing contract.\n    function addContract(bytes32 name, address addr) onlyOwner returns (bool result) {\n        ContractsManagerEnabled cme = ContractsManagerEnabled(addr);\n        // Don't add the contract if this does not work.\n        if(!cme.setContractsManagerAddress(address(this))) {\n            return false;\n        }\n        contracts[name] = addr;\n        return true;\n    }\n\n    // Remove a contract from setContractsManagerAddress.\n    function removeContract(bytes32 name) onlyOwner returns (bool result) {\n        if (contracts[name] == 0x0){\n            return false;\n        }\n        contracts[name] = 0x0;\n        return true;\n    }\n\n    function remove() onlyOwner {\n        address ai = contracts[\"applicationinterface\"];\n        address usersdb = contracts[\"usersdb\"];\n        address objectsdb = contracts[\"objectsdb\"];\n\n        // Remove everything.\n        if(ai != 0x0){ ContractsManagerEnabled(ai).remove(); }\n        if(usersdb != 0x0){ ContractsManagerEnabled(usersdb).remove(); }\n        if(objectsdb != 0x0){ ContractsManagerEnabled(objectsdb).remove(); }\n        selfdestruct(owner);\n    }\n\n}\n\n// Interface for getting contracts from ContractsManager\ncontract ContractProvider {\n    function contracts(bytes32 name) returns (address addr) {}\n}\n\ncontract ApplicationInterface is ContractsManagerEnabled {\n\n\tevent rentingEvent(bytes32 objName, bytes32 renterEmail, bytes32 ownerEmail, uint userHours);\n\tevent sellingEvent(bytes32 objName, bytes32 newOwnerEmail, bytes32 oldOwnerEmail);\n\tevent newUserRegistered(bytes32 email);\n\tevent newObjectAdded(bytes32 email, bytes32 objName);\n\n\tfunction registerNewUser(bytes32 emailAddress) returns (bool res) {\n\t\taddress usersdb = ContractProvider(ContractsManager).contracts(\"usersdb\");\n\t\tif(UsersDB(usersdb).addUser(msg.sender, emailAddress)) {\n\t\t\tnewUserRegistered(emailAddress);\n\t\t\treturn true;\n\t\t}\n\t\telse {\n\t\t\treturn false;\n\t\t}\t\t\n\t}\n\n\tfunction deleteUser() returns (bool res) {\n\t\taddress usersdb = ContractProvider(ContractsManager).contracts(\"usersdb\");\t\n\t\tif(UsersDB(usersdb).removeUser(msg.sender)) {\n\t\t\treturn true;\n\t\t}\n\t\telse {\n\t\t\treturn false;\n\t\t}\n\t}\n\n\tfunction registerNewObject(bytes32 objName, bool forSale, uint price, bool forRent, uint pph) returns (bool res) {\n\t\taddress usersdb = ContractProvider(ContractsManager).contracts(\"usersdb\");\t\n\t\taddress objectsdb = ContractProvider(ContractsManager).contracts(\"objectsdb\");\n\t\tif(UsersDB(usersdb).userRegistered(msg.sender)) {\n\t\t\tif(ObjectsDB(objectsdb).addObject(msg.sender, forSale, price, forRent, pph, objName)) {\n\t\t\t\tnewObjectAdded(UsersDB(usersdb).getUserEmailAddress(msg.sender), objName);\n\t\t\t\treturn true;\n\t\t\t}\n\t\t\telse {\n\t\t\t\treturn false;\n\t\t\t}\n\t\t}\n\t\telse {\n\t\t\treturn false;\n\t\t}\n\t}\n\n\tfunction deleteObject(bytes32 objName) returns (bool res) {\n\t\taddress objectsdb = ContractProvider(ContractsManager).contracts(\"objectsdb\");\n\t\tif(ObjectsDB(objectsdb).getObjectOwner(objName) == msg.sender) {\n\t\t\tif(ObjectsDB(objectsdb).removeObject(objName)) {\n\t\t\t\treturn true;\n\t\t\t}\n\t\t\telse {\n\t\t\t\treturn false;\n\t\t\t}\n\t\t}\n\t\telse {\n\t\t\treturn false;\n\t\t}\n\t}\n\n\tfunction buyObject(bytes32 objName) public payable returns (bool res)  {\n\t\taddress usersdb = ContractProvider(ContractsManager).contracts(\"usersdb\");\t\n\t\taddress objectsdb = ContractProvider(ContractsManager).contracts(\"objectsdb\");\n\t\tif(UsersDB(usersdb).userRegistered(msg.sender) && ObjectsDB(objectsdb).getObjectSaleStatus(objName) && ObjectsDB(objectsdb).getObjectPrice(objName) <= msg.value) {\n\t\t\tObjectsDB(objectsdb).getObjectOwner(objName).transfer(msg.value);\n\t\t\tObjectsDB(objectsdb).modifyOwner(msg.sender, objName);\n\t\t\tsellingEvent(objName, UsersDB(usersdb).getUserEmailAddress(msg.sender), UsersDB(usersdb).getUserEmailAddress(ObjectsDB(objectsdb).getObjectOwner(objName)));\n\t\t\treturn true;\n\t\t}\n\t\telse {\n\t\t\treturn false;\n\t\t}\n\t}\n\t\t\n\tfunction rentObject(bytes32 objName) public payable returns (bool res) {\n\t\taddress usersdb = ContractProvider(ContractsManager).contracts(\"usersdb\");\t\n\t\taddress objectsdb = ContractProvider(ContractsManager).contracts(\"objectsdb\");\n\t\tif(UsersDB(usersdb).userRegistered(msg.sender) && ObjectsDB(objectsdb).getObjectRentStatus(objName)) {\n\t\t\tObjectsDB(objectsdb).getObjectOwner(objName).transfer(msg.value);\n\t\t\trentingEvent(objName, UsersDB(usersdb).getUserEmailAddress(msg.sender), UsersDB(usersdb).getUserEmailAddress(ObjectsDB(objectsdb).getObjectOwner(objName)), msg.value/ObjectsDB(objectsdb).getObjectPph(objName));\n\t\t\treturn true;\n\t\t}\n\t\telse {\n\t\t\treturn false;\n\t\t}\n\t}\n\n\tfunction listAllObjectsOwned() public returns (bytes32[10] memory objArray, bool res) {\n\t\taddress usersdb = ContractProvider(ContractsManager).contracts(\"usersdb\");\t\n\t\taddress objectsdb = ContractProvider(ContractsManager).contracts(\"objectsdb\");\n\t\tbytes32[10] memory newObjArray;\n\t\tbool result;\n\t\tif(UsersDB(usersdb).userRegistered(msg.sender)) {\n\t\t\t(newObjArray, result) = ObjectsDB(objectsdb).returnAllObjectsOwnedByOwner(msg.sender);\n\t\t\treturn(newObjArray, result);\n\t\t}\n\t\telse {\n\t\t\treturn(newObjArray, false);\n\t\t}\n\t}\n\n\tfunction getObjectPrice(bytes32 objName) returns (uint price) {\n\t\taddress objectsdb = ContractProvider(ContractsManager).contracts(\"objectsdb\");\n\t\treturn ObjectsDB(objectsdb).getObjectPrice(objName);\n\t}\n\n\tfunction getObjectPph(bytes32 objName) returns (uint pph) {\n\t\taddress objectsdb = ContractProvider(ContractsManager).contracts(\"objectsdb\");\n\t\treturn ObjectsDB(objectsdb).getObjectPph(objName);\n\t}\n}\n\ncontract ApplicationInterfaceEnabled is ContractsManagerEnabled {\n\n    // Check if the call is properly permissioned\n    function isRightPermission() constant returns (bool) {\n        if(ContractsManager != 0x0){\n            address ownerAddress = ContractProvider(ContractsManager).contracts(\"applicationinterface\");\n            return msg.sender == ownerAddress;\n        }\n        return false;\n    }\n}\n\ncontract ObjectsDB is ApplicationInterfaceEnabled {\n\n\tbytes32[] objectsIndex = new bytes32[](100);\n\tuint256 objectsInDB = 0;\n\n\tstruct objectData {\n\t\taddress objOwner;\n\t\tbool forSale;\n\t\tuint price;\n\t\tbool forRent;\n\t\tuint pph;\n\t}\t\n\n\tmapping(bytes32 => objectData) objects;\n\n\t//Adds new object \n\tfunction addObject(address objOwner, bool forSale, uint price, bool forRent, uint pph, bytes32 objName) returns (bool res) {\n\t\tif(!isRightPermission()  || objName == \"\"  || objects[objName].objOwner != address(0)) {\n\t\t\treturn false;\n\t\t}\n\t\telse {\n\t\t\tobjects[objName].objOwner= objOwner;\n\t\t\tobjects[objName].forSale = forSale;\n\t\t\tobjects[objName].price = price;\n\t\t\tobjects[objName].forRent = forRent;\n\t\t\tobjects[objName].pph = pph;\n\t\t\tobjectsIndex[objectsInDB] = objName;\n\t\t\tobjectsInDB++;\n\t\t\treturn true;\n\t\t}\n\t}\n\t\n\t//Modifier functions\n\tfunction modifyOwner(address newObjOwner, bytes32 objName) returns (bool res) {\n\t\tif(isRightPermission()) {\n\t\t\tobjects[objName].objOwner = newObjOwner; \n\t\t\treturn true;\n\t\t}\n\t\telse {\n\t\t\treturn false;\n\t\t}\n\t}\n\n\tfunction modifySaleStatus(bool newForSale, bytes32 objName) returns (bool res) {\n\t\tif(isRightPermission()) {\n\t\t\tobjects[objName].forSale = newForSale; \n\t\t\treturn true;\n\t\t}\n\t\telse {\n\t\t\treturn false;\n\t\t}\n\t}\n\n\tfunction modifyPrice(uint newPrice, bytes32 objName) returns (bool res) {\n\t\tif(isRightPermission()) {\n\t\t\tobjects[objName].price = newPrice; \n\t\t\treturn true;\n\t\t}\n\t\telse {\n\t\t\treturn false;\n\t\t}\n\t}\n\n\tfunction modifyRentStatus(bool newForRent, bytes32 objName) returns (bool res) {\n\t\tif(isRightPermission()) {\n\t\t\tobjects[objName].forRent = newForRent; \n\t\t\treturn true;\n\t\t}\n\t\telse {\n\t\t\treturn false;\n\t\t}\n\t}\n\t\n\tfunction modifyPPH(uint newPph, bytes32 objName) returns (bool res) {\n\t\tif(isRightPermission()) {\n\t\t\tobjects[objName].pph = newPph; \n\t\t\treturn true;\n\t\t}\n\t\telse {\n\t\t\treturn false;\n\t\t}\n\t}\n\n\t//Removes object\n\tfunction removeObject(bytes32 objName) returns (bool res) {\n\t\tif(!isRightPermission() || objects[objName].objOwner == address(0) || objName == \"\") {\n\t\t\treturn false;\n\t\t}\n\t\telse {\n\t\t\tdelete objects[objName];\n\t\t\treturn true;\n\t\t}\n\t}\n\n\t//Gets Objects data if it exists\n\tfunction getObjectOwner(bytes32 objName) returns (address objOwner) {\n\t\tif(isRightPermission() && objName != \"\" && objects[objName].objOwner != address(0)) {\n\t\t\treturn objects[objName].objOwner;\n\t\t}\n\t\telse {\n\t\t\treturn address(0);\n\t\t} \n\t}\n\n\tfunction getObjectSaleStatus(bytes32 objName) returns (bool forSale) {\n\t\tif(isRightPermission() && objName != \"\" && objects[objName].objOwner != address(0)) {\n\t\t\treturn objects[objName].forSale;\n\t\t}\n\t\telse {\n\t\t\treturn false;\n\t\t} \n\t}\n\n\tfunction getObjectPrice(bytes32 objName) returns (uint price) {\n\t\tif(isRightPermission() && objName != \"\" && objects[objName].objOwner != address(0)) {\n\t\t\treturn objects[objName].price;\n\t\t}\n\t\telse {\n\t\t\treturn 0;\n\t\t} \n\t}\n\n\tfunction getObjectRentStatus(bytes32 objName) returns (bool forRent) {\n\t\tif(isRightPermission() && objName != \"\" && objects[objName].objOwner != address(0)) {\n\t\t\treturn objects[objName].forRent;\n\t\t}\n\t\telse {\n\t\t\treturn false;\n\t\t} \n\t}\n\n\tfunction getObjectPph(bytes32 objName) returns (uint pph) {\n\t\tif(isRightPermission() && objName != \"\" && objects[objName].objOwner != address(0)) {\n\t\t\treturn objects[objName].pph;\n\t\t}\n\t\telse {\n\t\t\treturn 0;\n\t\t} \n\t}\n\n\tfunction returnAllObjectsOwnedByOwner(address objOwner) returns (bytes32[10] memory objArray, bool res) {\n\t\tif(isRightPermission() && objOwner != address(0)) {\n\t\t\tuint256 i=0;\n\t\t\tuint256 j=0;\n\t\t\t\tbytes32[10] memory newObjArray;\n\t\t\t\tfor(i;i<objectsInDB;i++) {\n\t\t\t\t\tif(objects[objectsIndex[i]].objOwner == objOwner) {\n\t\t\t\t\t\tnewObjArray[j] = objectsIndex[i];\n\t\t\t\t\t\tj++;\n\t\t\t\t\t}\n\t\t\t\t}\n\t\t\t\treturn (newObjArray, true);\n\t\t}\n\t\telse {\n\t\t\treturn (newObjArray, false);\n\t\t}\n\t}\n\n}\n\n\ncontract UsersDB is ApplicationInterfaceEnabled {\n\n\tstruct userData {\n\t\tbool registered;\n\t\tbytes32 userEmailAddress;\n\t}\t\n\n\tmapping(address => userData) users;\n\t\n\t//Add new user\n\tfunction addUser(address userAddress, bytes32 userEmailAddress) returns (bool res) {\n\t\tif(!isRightPermission()  ||  users[userAddress].registered || userEmailAddress==\"\") {\n\t\t\treturn false;\n\t\t}\n\t\telse {\n\t\t\tusers[userAddress].registered = true;\n\t\t\tusers[userAddress].userEmailAddress = userEmailAddress; \n\t\t\treturn true;\n\t\t}\n\t}\n\n\t//Modifier function\n\tfunction modifyEmailAddress(address userAddress, bytes32 newUserEmailAddress) returns (bool res) {\n\t\tif(!isRightPermission() || !users[userAddress].registered || newUserEmailAddress==\"\" ) {\n\t\t\treturn false;\n\t\t}\n\t\telse {\n\t\t\tusers[userAddress].userEmailAddress = newUserEmailAddress;\n\t\t\treturn true;\n\t\t}\n\t}\n\n\tfunction removeUser(address userAddress) returns (bool res) {\n\t\tif(!isRightPermission() || !users[userAddress].registered) {\n\t\t\treturn false;\n\t\t}\n\t\telse {\n\t\t\tdelete users[userAddress];\n\t\t\treturn true;\n\t\t}\n\t}\n\n\tfunction getUserEmailAddress(address userAddress) returns (bytes32 emailAddress) {\n\t\tif(!isRightPermission() || !users[userAddress].registered) {\n\t\t\treturn \"\";\n\t\t}\n\t\telse {\n\t\t\treturn users[userAddress].userEmailAddress;\n\t\t}\n\t}\n\n\tfunction userRegistered(address userAddress) returns (bool res) {\n\t\tif(!isRightPermission() || !users[userAddress].registered) {\n\t\t\treturn false;\n\t\t}\n\t\telse {\n\t\t\treturn true;\n\t\t}\n\t}\n}\n\n",
  "sourcePath": "/home/egdelw0nk/EthereumResources/Projects/TransactionSystem/contracts/ContractsManager.sol",
  "compiler": {
    "name": "solc",
    "version": "0.4.21+commit.dfe3193c.Emscripten.clang"
  },
  "schemaVersion": "1.0.1",
  "updatedAt": "2018-03-28T05:14:40.261Z"
}