{
  "contractName": "ObjectsDB",
  "abi": [
    {
      "constant": false,
      "inputs": [
        {
          "name": "newObjOwner",
          "type": "address"
        },
        {
          "name": "objName",
          "type": "bytes32"
        }
      ],
      "name": "modifyOwner",
      "outputs": [
        {
          "name": "res",
          "type": "bool"
        }
      ],
      "payable": false,
      "stateMutability": "nonpayable",
      "type": "function"
    },
    {
      "constant": false,
      "inputs": [
        {
          "name": "objName",
          "type": "bytes32"
        }
      ],
      "name": "getObjectPrice",
      "outputs": [
        {
          "name": "price",
          "type": "uint256"
        }
      ],
      "payable": false,
      "stateMutability": "nonpayable",
      "type": "function"
    },
    {
      "constant": false,
      "inputs": [
        {
          "name": "objName",
          "type": "bytes32"
        }
      ],
      "name": "getObjectRentStatus",
      "outputs": [
        {
          "name": "forRent",
          "type": "bool"
        }
      ],
      "payable": false,
      "stateMutability": "nonpayable",
      "type": "function"
    },
    {
      "constant": false,
      "inputs": [
        {
          "name": "newPph",
          "type": "uint256"
        },
        {
          "name": "objName",
          "type": "bytes32"
        }
      ],
      "name": "modifyPPH",
      "outputs": [
        {
          "name": "res",
          "type": "bool"
        }
      ],
      "payable": false,
      "stateMutability": "nonpayable",
      "type": "function"
    },
    {
      "constant": false,
      "inputs": [
        {
          "name": "newPrice",
          "type": "uint256"
        },
        {
          "name": "objName",
          "type": "bytes32"
        }
      ],
      "name": "modifyPrice",
      "outputs": [
        {
          "name": "res",
          "type": "bool"
        }
      ],
      "payable": false,
      "stateMutability": "nonpayable",
      "type": "function"
    },
    {
      "constant": false,
      "inputs": [
        {
          "name": "objName",
          "type": "bytes32"
        }
      ],
      "name": "removeObject",
      "outputs": [
        {
          "name": "res",
          "type": "bool"
        }
      ],
      "payable": false,
      "stateMutability": "nonpayable",
      "type": "function"
    },
    {
      "constant": true,
      "inputs": [],
      "name": "isRightPermission",
      "outputs": [
        {
          "name": "",
          "type": "bool"
        }
      ],
      "payable": false,
      "stateMutability": "view",
      "type": "function"
    },
    {
      "constant": false,
      "inputs": [
        {
          "name": "newForSale",
          "type": "bool"
        },
        {
          "name": "objName",
          "type": "bytes32"
        }
      ],
      "name": "modifySaleStatus",
      "outputs": [
        {
          "name": "res",
          "type": "bool"
        }
      ],
      "payable": false,
      "stateMutability": "nonpayable",
      "type": "function"
    },
    {
      "constant": false,
      "inputs": [
        {
          "name": "objName",
          "type": "bytes32"
        }
      ],
      "name": "getObjectPph",
      "outputs": [
        {
          "name": "pph",
          "type": "uint256"
        }
      ],
      "payable": false,
      "stateMutability": "nonpayable",
      "type": "function"
    },
    {
      "constant": false,
      "inputs": [
        {
          "name": "objName",
          "type": "bytes32"
        }
      ],
      "name": "getObjectOwner",
      "outputs": [
        {
          "name": "objOwner",
          "type": "address"
        }
      ],
      "payable": false,
      "stateMutability": "nonpayable",
      "type": "function"
    },
    {
      "constant": false,
      "inputs": [
        {
          "name": "objOwner",
          "type": "address"
        },
        {
          "name": "forSale",
          "type": "bool"
        },
        {
          "name": "price",
          "type": "uint256"
        },
        {
          "name": "forRent",
          "type": "bool"
        },
        {
          "name": "pph",
          "type": "uint256"
        },
        {
          "name": "objName",
          "type": "bytes32"
        }
      ],
      "name": "addObject",
      "outputs": [
        {
          "name": "res",
          "type": "bool"
        }
      ],
      "payable": false,
      "stateMutability": "nonpayable",
      "type": "function"
    },
    {
      "constant": false,
      "inputs": [
        {
          "name": "objName",
          "type": "bytes32"
        }
      ],
      "name": "getObjectSaleStatus",
      "outputs": [
        {
          "name": "forSale",
          "type": "bool"
        }
      ],
      "payable": false,
      "stateMutability": "nonpayable",
      "type": "function"
    },
    {
      "constant": false,
      "inputs": [
        {
          "name": "objOwner",
          "type": "address"
        }
      ],
      "name": "returnAllObjectsOwnedByOwner",
      "outputs": [
        {
          "name": "objArray",
          "type": "bytes32[10]"
        },
        {
          "name": "res",
          "type": "bool"
        }
      ],
      "payable": false,
      "stateMutability": "nonpayable",
      "type": "function"
    },
    {
      "constant": false,
      "inputs": [
        {
          "name": "newForRent",
          "type": "bool"
        },
        {
          "name": "objName",
          "type": "bytes32"
        }
      ],
      "name": "modifyRentStatus",
      "outputs": [
        {
          "name": "res",
          "type": "bool"
        }
      ],
      "payable": false,
      "stateMutability": "nonpayable",
      "type": "function"
    },
    {
      "constant": false,
      "inputs": [
        {
          "name": "contractsManagerAddr",
          "type": "address"
        }
      ],
      "name": "setContractsManagerAddress",
      "outputs": [
        {
          "name": "result",
          "type": "bool"
        }
      ],
      "payable": false,
      "stateMutability": "nonpayable",
      "type": "function"
    },
    {
      "constant": false,
      "inputs": [],
      "name": "remove",
      "outputs": [],
      "payable": false,
      "stateMutability": "nonpayable",
      "type": "function"
    }
  ],
  "bytecode": "0x60606040526064604051805910620000145750595b9080825280602002602001820160405250600190805190602001906200003c92919062000054565b50600060025534156200004e57600080fd5b620000d4565b82805482825590600052602060002090810192821562000099579160200282015b828111156200009857825182906000191690559160200191906001019062000075565b5b509050620000a89190620000ac565b5090565b620000d191905b80821115620000cd576000816000905550600101620000b3565b5090565b90565b61154980620000e46000396000f3006060604052600436106100e6576000357c0100000000000000000000000000000000000000000000000000000000900463ffffffff1680630a42a1e3146100eb5780630ceb98771461012157806311564d31146101575780632ed24df01461018d57806331109341146101c357806333f782de146101f9578063620df4a91461022f5780637ca7e483146102655780637f1598b91461028e57806381c876b6146102c45780638721fb2b146102fa578063a258404314610330578063a7f4377914610366578063e7f151881461037b578063e823fdf2146103b1578063eec6035d146103e8575b600080fd5b34156100f657600080fd5b61010b600461010690369061124e565b61041e565b604051610118919061141e565b60405180910390f35b341561012c57600080fd5b610141600461013c90369061119c565b61049e565b60405161014e919061141e565b60405180910390f35b341561016257600080fd5b61017760046101729036906112c6565b61058c565b6040516101849190611452565b60405180910390f35b341561019857600080fd5b6101ad60046101a89036906112c6565b610653565b6040516101ba919061141e565b60405180910390f35b34156101ce57600080fd5b6101e360046101de9036906112ef565b610727565b6040516101f0919061141e565b60405180910390f35b341561020457600080fd5b61021960046102149036906112ef565b61076d565b604051610226919061141e565b60405180910390f35b341561023a57600080fd5b61024f600461024a9036906112c6565b6107b3565b60405161025c919061141e565b60405180910390f35b341561027057600080fd5b6102786108d7565b604051610285919061141e565b60405180910390f35b341561029957600080fd5b6102ae60046102a990369061128a565b610a00565b6040516102bb919061141e565b60405180910390f35b34156102cf57600080fd5b6102e460046102df9036906112c6565b610a59565b6040516102f19190611452565b60405180910390f35b341561030557600080fd5b61031a60046103159036906112c6565b610b20565b60405161032791906113d8565b60405180910390f35b341561033b57600080fd5b610350600461034b9036906111c5565b610c07565b60405161035d919061141e565b60405180910390f35b341561037157600080fd5b610379610dfa565b005b341561038657600080fd5b61039b60046103969036906112c6565b610e8b565b6040516103a8919061141e565b60405180910390f35b34156103bc57600080fd5b6103d160046103cc90369061119c565b610f5f565b6040516103df9291906113f3565b60405180910390f35b34156103f357600080fd5b610408600461040390369061128a565b6110c7565b604051610415919061141e565b60405180910390f35b60006104286108d7565b15610493578260036000846000191660001916815260200190815260200160002060000160006101000a81548173ffffffffffffffffffffffffffffffffffffffff021916908373ffffffffffffffffffffffffffffffffffffffff16021790555060019050610498565b600090505b92915050565b6000806000809054906101000a900473ffffffffffffffffffffffffffffffffffffffff1673ffffffffffffffffffffffffffffffffffffffff161415801561053457506000809054906101000a900473ffffffffffffffffffffffffffffffffffffffff1673ffffffffffffffffffffffffffffffffffffffff163373ffffffffffffffffffffffffffffffffffffffff1614155b156105425760009050610587565b816000806101000a81548173ffffffffffffffffffffffffffffffffffffffff021916908373ffffffffffffffffffffffffffffffffffffffff160217905550600190505b919050565b60006105966108d7565b80156105a757506000826000191614155b801561061e5750600073ffffffffffffffffffffffffffffffffffffffff1660036000846000191660001916815260200190815260200160002060000160009054906101000a900473ffffffffffffffffffffffffffffffffffffffff1673ffffffffffffffffffffffffffffffffffffffff1614155b156106495760036000836000191660001916815260200190815260200160002060010154905061064e565b600090505b919050565b600061065d6108d7565b801561066e57506000826000191614155b80156106e55750600073ffffffffffffffffffffffffffffffffffffffff1660036000846000191660001916815260200190815260200160002060000160009054906101000a900473ffffffffffffffffffffffffffffffffffffffff1673ffffffffffffffffffffffffffffffffffffffff1614155b1561071d5760036000836000191660001916815260200190815260200160002060020160009054906101000a900460ff169050610722565b600090505b919050565b60006107316108d7565b1561076257826003600084600019166000191681526020019081526020016000206003018190555060019050610767565b600090505b92915050565b60006107776108d7565b156107a8578260036000846000191660001916815260200190815260200160002060010181905550600190506107ad565b600090505b92915050565b60006107bd6108d7565b15806108335750600073ffffffffffffffffffffffffffffffffffffffff1660036000846000191660001916815260200190815260200160002060000160009054906101000a900473ffffffffffffffffffffffffffffffffffffffff1673ffffffffffffffffffffffffffffffffffffffff16145b80610842575060008260001916145b1561085057600090506108d2565b600360008360001916600019168152602001908152602001600020600080820160006101000a81549073ffffffffffffffffffffffffffffffffffffffff02191690556000820160146101000a81549060ff021916905560018201600090556002820160006101000a81549060ff021916905560038201600090555050600190505b919050565b60008060008060009054906101000a900473ffffffffffffffffffffffffffffffffffffffff1673ffffffffffffffffffffffffffffffffffffffff161415156109f7576000809054906101000a900473ffffffffffffffffffffffffffffffffffffffff1673ffffffffffffffffffffffffffffffffffffffff1663ec56a3736040518163ffffffff167c010000000000000000000000000000000000000000000000000000000002815260040161098f90611439565b602060405180830381600087803b15156109a857600080fd5b5af115156109b557600080fd5b5050506040518051905090508073ffffffffffffffffffffffffffffffffffffffff163373ffffffffffffffffffffffffffffffffffffffff161491506109fc565b600091505b5090565b6000610a0a6108d7565b15610a4e578260036000846000191660001916815260200190815260200160002060000160146101000a81548160ff02191690831515021790555060019050610a53565b600090505b92915050565b6000610a636108d7565b8015610a7457506000826000191614155b8015610aeb5750600073ffffffffffffffffffffffffffffffffffffffff1660036000846000191660001916815260200190815260200160002060000160009054906101000a900473ffffffffffffffffffffffffffffffffffffffff1673ffffffffffffffffffffffffffffffffffffffff1614155b15610b1657600360008360001916600019168152602001908152602001600020600301549050610b1b565b600090505b919050565b6000610b2a6108d7565b8015610b3b57506000826000191614155b8015610bb25750600073ffffffffffffffffffffffffffffffffffffffff1660036000846000191660001916815260200190815260200160002060000160009054906101000a900473ffffffffffffffffffffffffffffffffffffffff1673ffffffffffffffffffffffffffffffffffffffff1614155b15610bfd5760036000836000191660001916815260200190815260200160002060000160009054906101000a900473ffffffffffffffffffffffffffffffffffffffff169050610c02565b600090505b919050565b6000610c116108d7565b1580610c21575060008260001916145b80610c975750600073ffffffffffffffffffffffffffffffffffffffff1660036000846000191660001916815260200190815260200160002060000160009054906101000a900473ffffffffffffffffffffffffffffffffffffffff1673ffffffffffffffffffffffffffffffffffffffff1614155b15610ca55760009050610df0565b8660036000846000191660001916815260200190815260200160002060000160006101000a81548173ffffffffffffffffffffffffffffffffffffffff021916908373ffffffffffffffffffffffffffffffffffffffff1602179055508560036000846000191660001916815260200190815260200160002060000160146101000a81548160ff02191690831515021790555084600360008460001916600019168152602001908152602001600020600101819055508360036000846000191660001916815260200190815260200160002060020160006101000a81548160ff0219169083151502179055508260036000846000191660001916815260200190815260200160002060030181905550816001600254815481101515610dc657fe5b90600052602060002090018160001916905550600260008154809291906001019190505550600190505b9695505050505050565b6000809054906101000a900473ffffffffffffffffffffffffffffffffffffffff1673ffffffffffffffffffffffffffffffffffffffff163373ffffffffffffffffffffffffffffffffffffffff161415610e89576000809054906101000a900473ffffffffffffffffffffffffffffffffffffffff1673ffffffffffffffffffffffffffffffffffffffff16ff5b565b6000610e956108d7565b8015610ea657506000826000191614155b8015610f1d5750600073ffffffffffffffffffffffffffffffffffffffff1660036000846000191660001916815260200190815260200160002060000160009054906101000a900473ffffffffffffffffffffffffffffffffffffffff1673ffffffffffffffffffffffffffffffffffffffff1614155b15610f555760036000836000191660001916815260200190815260200160002060000160149054906101000a900460ff169050610f5a565b600090505b919050565b610f67611120565b6000806000610f74611120565b610f7c6108d7565b8015610fb55750600073ffffffffffffffffffffffffffffffffffffffff168673ffffffffffffffffffffffffffffffffffffffff1614155b156110b75760009250600091505b6002548310156110ab578573ffffffffffffffffffffffffffffffffffffffff1660036000600186815481101515610ff757fe5b9060005260206000209001546000191660001916815260200190815260200160002060000160009054906101000a900473ffffffffffffffffffffffffffffffffffffffff1673ffffffffffffffffffffffffffffffffffffffff16141561109e5760018381548110151561106857fe5b9060005260206000209001548183600a8110151561108257fe5b6020020190600019169081600019168152505081806001019250505b8280600101935050610fc3565b806001945094506110bf565b806000945094505b505050915091565b60006110d16108d7565b15611115578260036000846000191660001916815260200190815260200160002060020160006101000a81548160ff0219169083151502179055506001905061111a565b600090505b92915050565b61014060405190810160405280600a905b60008019168152602001906001900390816111315790505090565b600061115882356114cf565b905092915050565b600061116c82356114ef565b905092915050565b600061118082356114fb565b905092915050565b60006111948235611505565b905092915050565b6000602082840312156111ae57600080fd5b60006111bc8482850161114c565b91505092915050565b60008060008060008060c087890312156111de57600080fd5b60006111ec89828a0161114c565b96505060206111fd89828a01611160565b955050604061120e89828a01611188565b945050606061121f89828a01611160565b935050608061123089828a01611188565b92505060a061124189828a01611174565b9150509295509295509295565b6000806040838503121561126157600080fd5b600061126f8582860161114c565b925050602061128085828601611174565b9150509250929050565b6000806040838503121561129d57600080fd5b60006112ab85828601611160565b92505060206112bc85828601611174565b9150509250929050565b6000602082840312156112d857600080fd5b60006112e684828501611174565b91505092915050565b6000806040838503121561130257600080fd5b600061131085828601611188565b925050602061132185828601611174565b9150509250929050565b6113348161148f565b82525050565b61134381611477565b61134c8261146d565b60005b8281101561137e57611362858351611394565b61136b82611482565b915060208501945060018101905061134f565b5050505050565b61138e816114af565b82525050565b61139d816114bb565b82525050565b7f6170706c69636174696f6e696e74657266616365000000000000000000000000815250565b6113d2816114c5565b82525050565b60006020820190506113ed600083018461132b565b92915050565b600061016082019050611409600083018561133a565b611417610140830184611385565b9392505050565b60006020820190506114336000830184611385565b92915050565b600060208201905061144d600083016113a3565b919050565b600060208201905061146760008301846113c9565b92915050565b6000819050919050565b6000600a9050919050565b6000602082019050919050565b600073ffffffffffffffffffffffffffffffffffffffff82169050919050565b60008115159050919050565b6000819050919050565b6000819050919050565b600073ffffffffffffffffffffffffffffffffffffffff82169050919050565b60008115159050919050565b6000819050919050565b60008190509190505600a265627a7a723058204f060a23ba6811144f6cae21b30d0e637481a1d245930adcb5acc3994f0016f86c6578706572696d656e74616cf50037",
  "source": "pragma solidity ^0.4.20;\npragma experimental ABIEncoderV2;\n\n    /**\n    * Script for object lending contracts\n    */\n\ncontract ContractsManagerEnabled {\n    address ContractsManager;\n\n    function setContractsManagerAddress(address contractsManagerAddr) returns (bool result){\n        // Once the ContractsManager address is set, don't allow it to be set again, except by the\n        // ContractsManager contract itself.\n        if(ContractsManager != 0x0 && msg.sender != ContractsManager){\n            return false;\n        }\n        ContractsManager = contractsManagerAddr;\n        return true;\n    }\n\n    // Makes it so that ContractsManager is the only contract that may kill it.\n    function remove(){\n        if(msg.sender == ContractsManager){\n            selfdestruct(ContractsManager);\n        }\n    }\n\n}\n\n// The Doug contract.\ncontract ContractsManager {\n\n    address owner;\n\n    // This is where we keep all the contracts.\n    mapping (bytes32 => address) public contracts;\n\n    modifier onlyOwner { //a modifier to reduce code replication\n        if (msg.sender == owner) // this ensures that only the owner can access the function\n            _;\n    }\n    \n    // Constructor\n    function ContractsManager(){\n        owner = msg.sender;\n    }\n\n    // Add a new contract to ContractsManager. This will overwrite an existing contract.\n    function addContract(bytes32 name, address addr) onlyOwner returns (bool result) {\n        ContractsManagerEnabled cme = ContractsManagerEnabled(addr);\n        // Don't add the contract if this does not work.\n        if(!cme.setContractsManagerAddress(address(this))) {\n            return false;\n        }\n        contracts[name] = addr;\n        return true;\n    }\n\n    // Remove a contract from setContractsManagerAddress.\n    function removeContract(bytes32 name) onlyOwner returns (bool result) {\n        if (contracts[name] == 0x0){\n            return false;\n        }\n        contracts[name] = 0x0;\n        return true;\n    }\n\n    function remove() onlyOwner {\n        address ai = contracts[\"applicationinterface\"];\n        address usersdb = contracts[\"usersdb\"];\n        address objectsdb = contracts[\"objectsdb\"];\n\n        // Remove everything.\n        if(ai != 0x0){ ContractsManagerEnabled(ai).remove(); }\n        if(usersdb != 0x0){ ContractsManagerEnabled(usersdb).remove(); }\n        if(objectsdb != 0x0){ ContractsManagerEnabled(objectsdb).remove(); }\n        selfdestruct(owner);\n    }\n\n}\n\n// Interface for getting contracts from ContractsManager\ncontract ContractProvider {\n    function contracts(bytes32 name) returns (address addr) {}\n}\n\ncontract ApplicationInterface is ContractsManagerEnabled {\n\n\tevent rentingEvent(bytes32 objName, bytes32 renterEmail, bytes32 ownerEmail, uint userHours);\n\tevent sellingEvent(bytes32 objName, bytes32 newOwnerEmail, bytes32 oldOwnerEmail);\n\tevent newUserRegistered(bytes32 email);\n\tevent newObjectAdded(bytes32 email, bytes32 objName);\n\n\tfunction registerNewUser(bytes32 emailAddress) returns (bool res) {\n\t\taddress usersdb = ContractProvider(ContractsManager).contracts(\"usersdb\");\n\t\tif(UsersDB(usersdb).addUser(msg.sender, emailAddress)) {\n\t\t\tnewUserRegistered(emailAddress);\n\t\t\treturn true;\n\t\t}\n\t\telse {\n\t\t\treturn false;\n\t\t}\t\t\n\t}\n\n\tfunction deleteUser() returns (bool res) {\n\t\taddress usersdb = ContractProvider(ContractsManager).contracts(\"usersdb\");\t\n\t\tif(UsersDB(usersdb).removeUser(msg.sender)) {\n\t\t\treturn true;\n\t\t}\n\t\telse {\n\t\t\treturn false;\n\t\t}\n\t}\n\n\tfunction registerNewObject(bytes32 objName, bool forSale, uint price, bool forRent, uint pph) returns (bool res) {\n\t\taddress usersdb = ContractProvider(ContractsManager).contracts(\"usersdb\");\t\n\t\taddress objectsdb = ContractProvider(ContractsManager).contracts(\"objectsdb\");\n\t\tif(UsersDB(usersdb).userRegistered(msg.sender)) {\n\t\t\tif(ObjectsDB(objectsdb).addObject(msg.sender, forSale, price, forRent, pph, objName)) {\n\t\t\t\tnewObjectAdded(UsersDB(usersdb).getUserEmailAddress(msg.sender), objName);\n\t\t\t\treturn true;\n\t\t\t}\n\t\t\telse {\n\t\t\t\treturn false;\n\t\t\t}\n\t\t}\n\t\telse {\n\t\t\treturn false;\n\t\t}\n\t}\n\n\tfunction deleteObject(bytes32 objName) returns (bool res) {\n\t\taddress objectsdb = ContractProvider(ContractsManager).contracts(\"objectsdb\");\n\t\tif(ObjectsDB(objectsdb).getObjectOwner(objName) == msg.sender) {\n\t\t\tif(ObjectsDB(objectsdb).removeObject(objName)) {\n\t\t\t\treturn true;\n\t\t\t}\n\t\t\telse {\n\t\t\t\treturn false;\n\t\t\t}\n\t\t}\n\t\telse {\n\t\t\treturn false;\n\t\t}\n\t}\n\n\tfunction buyObject(bytes32 objName) public payable returns (bool res)  {\n\t\taddress usersdb = ContractProvider(ContractsManager).contracts(\"usersdb\");\t\n\t\taddress objectsdb = ContractProvider(ContractsManager).contracts(\"objectsdb\");\n\t\tif(UsersDB(usersdb).userRegistered(msg.sender) && ObjectsDB(objectsdb).getObjectSaleStatus(objName) && ObjectsDB(objectsdb).getObjectPrice(objName) <= msg.value) {\n\t\t\tObjectsDB(objectsdb).getObjectOwner(objName).transfer(msg.value);\n\t\t\tObjectsDB(objectsdb).modifyOwner(msg.sender, objName);\n\t\t\tsellingEvent(objName, UsersDB(usersdb).getUserEmailAddress(msg.sender), UsersDB(usersdb).getUserEmailAddress(ObjectsDB(objectsdb).getObjectOwner(objName)));\n\t\t\treturn true;\n\t\t}\n\t\telse {\n\t\t\treturn false;\n\t\t}\n\t}\n\t\t\n\tfunction rentObject(bytes32 objName) public payable returns (bool res) {\n\t\taddress usersdb = ContractProvider(ContractsManager).contracts(\"usersdb\");\t\n\t\taddress objectsdb = ContractProvider(ContractsManager).contracts(\"objectsdb\");\n\t\tif(UsersDB(usersdb).userRegistered(msg.sender) && ObjectsDB(objectsdb).getObjectRentStatus(objName)) {\n\t\t\tObjectsDB(objectsdb).getObjectOwner(objName).transfer(msg.value);\n\t\t\trentingEvent(objName, UsersDB(usersdb).getUserEmailAddress(msg.sender), UsersDB(usersdb).getUserEmailAddress(ObjectsDB(objectsdb).getObjectOwner(objName)), msg.value/ObjectsDB(objectsdb).getObjectPph(objName));\n\t\t\treturn true;\n\t\t}\n\t\telse {\n\t\t\treturn false;\n\t\t}\n\t}\n\n\tfunction listAllObjectsOwned() public returns (bytes32[10] memory objArray, bool res) {\n\t\taddress usersdb = ContractProvider(ContractsManager).contracts(\"usersdb\");\t\n\t\taddress objectsdb = ContractProvider(ContractsManager).contracts(\"objectsdb\");\n\t\tbytes32[10] memory newObjArray;\n\t\tbool result;\n\t\tif(UsersDB(usersdb).userRegistered(msg.sender)) {\n\t\t\t(newObjArray, result) = ObjectsDB(objectsdb).returnAllObjectsOwnedByOwner(msg.sender);\n\t\t\treturn(newObjArray, result);\n\t\t}\n\t\telse {\n\t\t\treturn(newObjArray, false);\n\t\t}\n\t}\n\n\tfunction getObjectPrice(bytes32 objName) returns (uint price) {\n\t\taddress objectsdb = ContractProvider(ContractsManager).contracts(\"objectsdb\");\n\t\treturn ObjectsDB(objectsdb).getObjectPrice(objName);\n\t}\n\n\tfunction getObjectPph(bytes32 objName) returns (uint pph) {\n\t\taddress objectsdb = ContractProvider(ContractsManager).contracts(\"objectsdb\");\n\t\treturn ObjectsDB(objectsdb).getObjectPph(objName);\n\t}\n}\n\ncontract ApplicationInterfaceEnabled is ContractsManagerEnabled {\n\n    // Check if the call is properly permissioned\n    function isRightPermission() constant returns (bool) {\n        if(ContractsManager != 0x0){\n            address ownerAddress = ContractProvider(ContractsManager).contracts(\"applicationinterface\");\n            return msg.sender == ownerAddress;\n        }\n        return false;\n    }\n}\n\ncontract ObjectsDB is ApplicationInterfaceEnabled {\n\n\tbytes32[] objectsIndex = new bytes32[](100);\n\tuint256 objectsInDB = 0;\n\n\tstruct objectData {\n\t\taddress objOwner;\n\t\tbool forSale;\n\t\tuint price;\n\t\tbool forRent;\n\t\tuint pph;\n\t}\t\n\n\tmapping(bytes32 => objectData) objects;\n\n\t//Adds new object \n\tfunction addObject(address objOwner, bool forSale, uint price, bool forRent, uint pph, bytes32 objName) returns (bool res) {\n\t\tif(!isRightPermission()  || objName == \"\"  || objects[objName].objOwner != address(0)) {\n\t\t\treturn false;\n\t\t}\n\t\telse {\n\t\t\tobjects[objName].objOwner= objOwner;\n\t\t\tobjects[objName].forSale = forSale;\n\t\t\tobjects[objName].price = price;\n\t\t\tobjects[objName].forRent = forRent;\n\t\t\tobjects[objName].pph = pph;\n\t\t\tobjectsIndex[objectsInDB] = objName;\n\t\t\tobjectsInDB++;\n\t\t\treturn true;\n\t\t}\n\t}\n\t\n\t//Modifier functions\n\tfunction modifyOwner(address newObjOwner, bytes32 objName) returns (bool res) {\n\t\tif(isRightPermission()) {\n\t\t\tobjects[objName].objOwner = newObjOwner; \n\t\t\treturn true;\n\t\t}\n\t\telse {\n\t\t\treturn false;\n\t\t}\n\t}\n\n\tfunction modifySaleStatus(bool newForSale, bytes32 objName) returns (bool res) {\n\t\tif(isRightPermission()) {\n\t\t\tobjects[objName].forSale = newForSale; \n\t\t\treturn true;\n\t\t}\n\t\telse {\n\t\t\treturn false;\n\t\t}\n\t}\n\n\tfunction modifyPrice(uint newPrice, bytes32 objName) returns (bool res) {\n\t\tif(isRightPermission()) {\n\t\t\tobjects[objName].price = newPrice; \n\t\t\treturn true;\n\t\t}\n\t\telse {\n\t\t\treturn false;\n\t\t}\n\t}\n\n\tfunction modifyRentStatus(bool newForRent, bytes32 objName) returns (bool res) {\n\t\tif(isRightPermission()) {\n\t\t\tobjects[objName].forRent = newForRent; \n\t\t\treturn true;\n\t\t}\n\t\telse {\n\t\t\treturn false;\n\t\t}\n\t}\n\t\n\tfunction modifyPPH(uint newPph, bytes32 objName) returns (bool res) {\n\t\tif(isRightPermission()) {\n\t\t\tobjects[objName].pph = newPph; \n\t\t\treturn true;\n\t\t}\n\t\telse {\n\t\t\treturn false;\n\t\t}\n\t}\n\n\t//Removes object\n\tfunction removeObject(bytes32 objName) returns (bool res) {\n\t\tif(!isRightPermission() || objects[objName].objOwner == address(0) || objName == \"\") {\n\t\t\treturn false;\n\t\t}\n\t\telse {\n\t\t\tdelete objects[objName];\n\t\t\treturn true;\n\t\t}\n\t}\n\n\t//Gets Objects data if it exists\n\tfunction getObjectOwner(bytes32 objName) returns (address objOwner) {\n\t\tif(isRightPermission() && objName != \"\" && objects[objName].objOwner != address(0)) {\n\t\t\treturn objects[objName].objOwner;\n\t\t}\n\t\telse {\n\t\t\treturn address(0);\n\t\t} \n\t}\n\n\tfunction getObjectSaleStatus(bytes32 objName) returns (bool forSale) {\n\t\tif(isRightPermission() && objName != \"\" && objects[objName].objOwner != address(0)) {\n\t\t\treturn objects[objName].forSale;\n\t\t}\n\t\telse {\n\t\t\treturn false;\n\t\t} \n\t}\n\n\tfunction getObjectPrice(bytes32 objName) returns (uint price) {\n\t\tif(isRightPermission() && objName != \"\" && objects[objName].objOwner != address(0)) {\n\t\t\treturn objects[objName].price;\n\t\t}\n\t\telse {\n\t\t\treturn 0;\n\t\t} \n\t}\n\n\tfunction getObjectRentStatus(bytes32 objName) returns (bool forRent) {\n\t\tif(isRightPermission() && objName != \"\" && objects[objName].objOwner != address(0)) {\n\t\t\treturn objects[objName].forRent;\n\t\t}\n\t\telse {\n\t\t\treturn false;\n\t\t} \n\t}\n\n\tfunction getObjectPph(bytes32 objName) returns (uint pph) {\n\t\tif(isRightPermission() && objName != \"\" && objects[objName].objOwner != address(0)) {\n\t\t\treturn objects[objName].pph;\n\t\t}\n\t\telse {\n\t\t\treturn 0;\n\t\t} \n\t}\n\n\tfunction returnAllObjectsOwnedByOwner(address objOwner) returns (bytes32[10] memory objArray, bool res) {\n\t\tif(isRightPermission() && objOwner != address(0)) {\n\t\t\tuint256 i=0;\n\t\t\tuint256 j=0;\n\t\t\t\tbytes32[10] memory newObjArray;\n\t\t\t\tfor(i;i<objectsInDB;i++) {\n\t\t\t\t\tif(objects[objectsIndex[i]].objOwner == objOwner) {\n\t\t\t\t\t\tnewObjArray[j] = objectsIndex[i];\n\t\t\t\t\t\tj++;\n\t\t\t\t\t}\n\t\t\t\t}\n\t\t\t\treturn (newObjArray, true);\n\t\t}\n\t\telse {\n\t\t\treturn (newObjArray, false);\n\t\t}\n\t}\n\n}\n\n\ncontract UsersDB is ApplicationInterfaceEnabled {\n\n\tstruct userData {\n\t\tbool registered;\n\t\tbytes32 userEmailAddress;\n\t}\t\n\n\tmapping(address => userData) users;\n\t\n\t//Add new user\n\tfunction addUser(address userAddress, bytes32 userEmailAddress) returns (bool res) {\n\t\tif(!isRightPermission()  ||  users[userAddress].registered || userEmailAddress==\"\") {\n\t\t\treturn false;\n\t\t}\n\t\telse {\n\t\t\tusers[userAddress].registered = true;\n\t\t\tusers[userAddress].userEmailAddress = userEmailAddress; \n\t\t\treturn true;\n\t\t}\n\t}\n\n\t//Modifier function\n\tfunction modifyEmailAddress(address userAddress, bytes32 newUserEmailAddress) returns (bool res) {\n\t\tif(!isRightPermission() || !users[userAddress].registered || newUserEmailAddress==\"\" ) {\n\t\t\treturn false;\n\t\t}\n\t\telse {\n\t\t\tusers[userAddress].userEmailAddress = newUserEmailAddress;\n\t\t\treturn true;\n\t\t}\n\t}\n\n\tfunction removeUser(address userAddress) returns (bool res) {\n\t\tif(!isRightPermission() || !users[userAddress].registered) {\n\t\t\treturn false;\n\t\t}\n\t\telse {\n\t\t\tdelete users[userAddress];\n\t\t\treturn true;\n\t\t}\n\t}\n\n\tfunction getUserEmailAddress(address userAddress) returns (bytes32 emailAddress) {\n\t\tif(!isRightPermission() || !users[userAddress].registered) {\n\t\t\treturn \"\";\n\t\t}\n\t\telse {\n\t\t\treturn users[userAddress].userEmailAddress;\n\t\t}\n\t}\n\n\tfunction userRegistered(address userAddress) returns (bool res) {\n\t\tif(!isRightPermission() || !users[userAddress].registered) {\n\t\t\treturn false;\n\t\t}\n\t\telse {\n\t\t\treturn true;\n\t\t}\n\t}\n}\n\n",
  "sourcePath": "/home/egdelw0nk/EthereumResources/Projects/TransactionSystem/contracts/ContractsManager.sol",
  "compiler": {
    "name": "solc",
    "version": "0.4.21+commit.dfe3193c.Emscripten.clang"
  },
  "schemaVersion": "1.0.1",
  "updatedAt": "2018-03-28T05:14:40.453Z"
}