{
  "contractName": "RouterContract",
  "abi": [
    {
      "constant": true,
      "inputs": [],
      "name": "owner",
      "outputs": [
        {
          "name": "",
          "type": "address"
        }
      ],
      "payable": false,
      "stateMutability": "view",
      "type": "function"
    },
    {
      "inputs": [],
      "payable": false,
      "stateMutability": "nonpayable",
      "type": "constructor"
    },
    {
      "anonymous": false,
      "inputs": [
        {
          "indexed": false,
          "name": "owner",
          "type": "address"
        },
        {
          "indexed": false,
          "name": "email",
          "type": "string"
        },
        {
          "indexed": false,
          "name": "value",
          "type": "uint256"
        }
      ],
      "name": "LendingEvent",
      "type": "event"
    },
    {
      "constant": false,
      "inputs": [
        {
          "name": "emailAddress",
          "type": "string"
        }
      ],
      "name": "rent",
      "outputs": [],
      "payable": true,
      "stateMutability": "payable",
      "type": "function"
    }
  ],
  "bytecode": "0x6060604052341561000f57600080fd5b336000806101000a81548173ffffffffffffffffffffffffffffffffffffffff021916908373ffffffffffffffffffffffffffffffffffffffff1602179055506103808061005e6000396000f30060606040526004361061004c576000357c0100000000000000000000000000000000000000000000000000000000900463ffffffff1680635277081c146100515780638da5cb5b146100a3575b600080fd5b6100a1600480803590602001908201803590602001908080601f016020809104026020016040519081016040528093929190818152602001838380828437820191505050505050919050506100f8565b005b34156100ae57600080fd5b6100b6610241565b604051808273ffffffffffffffffffffffffffffffffffffffff1673ffffffffffffffffffffffffffffffffffffffff16815260200191505060405180910390f35b34600160003373ffffffffffffffffffffffffffffffffffffffff1673ffffffffffffffffffffffffffffffffffffffff1681526020019081526020016000208190555061014533610266565b7fde593f26afaaa1ea11d6e66be7fa01db37e6901c5ec16789213311644c1b2d4e6000809054906101000a900473ffffffffffffffffffffffffffffffffffffffff168234604051808473ffffffffffffffffffffffffffffffffffffffff1673ffffffffffffffffffffffffffffffffffffffff16815260200180602001838152602001828103825284818151815260200191508051906020019080838360005b838110156102025780820151818401526020810190506101e7565b50505050905090810190601f16801561022f5780820380516001836020036101000a031916815260200191505b5094505050505060405180910390a150565b6000809054906101000a900473ffffffffffffffffffffffffffffffffffffffff1681565b6000600160008373ffffffffffffffffffffffffffffffffffffffff1673ffffffffffffffffffffffffffffffffffffffff1681526020019081526020016000205490506000600160008473ffffffffffffffffffffffffffffffffffffffff1673ffffffffffffffffffffffffffffffffffffffff168152602001908152602001600020819055506000809054906101000a900473ffffffffffffffffffffffffffffffffffffffff1673ffffffffffffffffffffffffffffffffffffffff166108fc829081150290604051600060405180830381858888f19350505050151561035057600080fd5b50505600a165627a7a723058209a33e5d147ecd5cab4ee1bcf9e5d4dcd44c54d565a7dbf56a5ce9bd45d1146c40029",
  "source": "pragma solidity ^0.4.18;\n\n    /**\n    * Script for Wi-Fi contract\n    */\n\ncontract RouterContract {\n    /**\n    * Owner and lender accounts\n    */\n\taddress public owner;\n\tmapping(address => uint) lenderAccounts;\n    /**\n    * Events to flag script actions\n    */\n\tevent LendingEvent(address owner, string email, uint value);\n\n    /**\n    * The contract constructor\n    */\n\tfunction RouterContract() public {\n\t\towner = msg.sender;\n\t}\n\n    /**\n    * Function that allows a user to rent from owner\n    */\n\tfunction rent(string emailAddress) public payable {\n        lenderAccounts[msg.sender] = msg.value;\n\t\tpayOwner(msg.sender);\n        LendingEvent(owner, emailAddress, msg.value);\n    }\n\n    /**\n    * The payment function, following the withdraw pattern shown and explained here: \n    * http://solidity.readthedocs.io/en/develop/common-patterns.html#withdrawal-from-contracts\n    */\n    function payOwner(address lender) private {\n        uint amount = lenderAccounts[lender];\n        lenderAccounts[lender] = 0;\n        owner.transfer(amount);\n    }\n}\n",
  "sourcePath": "/home/egdelw0nk/EthereumResources/Projects/TransactionSystem/contracts/RouterContract.sol",
  "compiler": {
    "name": "solc",
    "version": "0.4.19+commit.c4cbbb05.Emscripten.clang"
  },
  "schemaVersion": "1.0.1",
  "updatedAt": "2018-02-14T16:25:36.160Z"
}